:020000040800F2
:10000000000002206D060008010500080705000831
:100010000D05000813050008190500080000000080
:100020000000000000000000000000001F050008A4
:100030002D050008000000003B05000849050008E8
:10004000BD060008BD060008BD060008BD06000884
:10005000BD060008BD060008BD060008BD06000874
:10006000BD060008BD060008BD060008BD06000864
:10007000BD060008BD060008BD060008BD06000854
:10008000BD060008BD060008BD060008BD06000844
:10009000BD060008BD060008BD060008BD06000834
:1000A000BD060008BD060008BD060008BD06000824
:1000B000BD060008BD060008BD060008BD06000814
:1000C000BD060008BD060008BD060008BD06000804
:1000D000BD060008BD060008BD060008BD060008F4
:1000E000BD060008BD06000800000000BD060008AF
:1000F000BD060008BD060008BD060008BD060008D4
:10010000BD060008BD060008BD060008BD060008C3
:10011000BD060008BD060008BD060008BD060008B3
:10012000BD060008BD060008BD060008BD060008A3
:10013000BD060008BD060008BD060008BD06000893
:1001400000000000000000000000000000000000AF
:10015000BD060008BD060008BD060008BD06000873
:10016000BD060008BD060008BD060008BD06000863
:10017000BD060008BD060008BD060008000000001E
:10018000BD060008BD060008BD060008BD06000843
:10019000BD060008BD060008BD060008BD06000833
:1001A000BD060008BD060008BD060008BD06000823
:1001B000BD060008BD060008BD060008BD06000813
:1001C000BD060008BD060008BD060008BD06000803
:1001D000BD060008BD060008BD060008BD060008F3
:1001E000BD060008BD060008BD060008BD060008E3
:1001F000BD060008BD060008BD060008BD060008D3
:10020000BD060008BD060008BD060008BD060008C2
:10021000BD060008BD060008BD060008BD060008B2
:10022000BD060008BD060008BD060008000000006D
:10023000BD060008BD06000800000000BD0600085D
:10024000BD060008BD060008BD060008BD06000882
:10025000BD060008BD060008BD060008BD06000872
:10026000BD060008BD060008BD060008BD06000862
:10027000BD060008BD060008BD060008000000001D
:10028000BD060008BD060008BD060008000000000D
:0802900000000000BD0600089B
:1002980010B5054C237833B9044B13B10448AFF3B8
:1002A80000800123237010BD100000200000000012
:1002B800EC1C000808B5034B1BB103490348AFF316
:1002C800008008BD0000000014000020EC1C00089D
:1002D80080B582B000AF00F0EFF900F029F800F027
:1002E80091F800237B607B68002B0CBF012300235F
:1002F800DBB27B607B68002B0CBF01230023DBB2E1
:100308003B607B68DBB21A460121074800F02AFDF2
:100318003B68DBB21A460221044800F023FD4FF483
:10032800FA7000F05BFADEE7000402580010025889
:1003380080B59CB000AF07F124034C220021184679
:1003480001F0C8FC3B1D20220021184601F0C2FC28
:10035800022000F021FD00233B60284BDB6A274A7E
:1003680023F00103D362254BDB6A03F001033B60F2
:10037800234B9B6923F44043214A43F48043936110
:100388001F4B9B6903F440433B603B6800BF1C4B19
:100398009B6903F40053B3F5005FF8D102237B6235
:1003A80001233B6340237B630023BB6407F12403E1
:1003B800184600F02BFD0346002B01D000F07CF816
:1003C8003F237B600023BB600023FB6000233B616D
:1003D80000237B610023BB610023FB6100233B6298
:1003E8003B1D0121184601F021F90346002B01D0DD
:1003F80000F062F800BF7037BD4680BD00040058A9
:100408000048025880B588B000AF07F10C030022FD
:100418001A605A609A60DA601A61244BD3F8E030A7
:10042800224A43F00203C2F8E030204BD3F8E03010
:1004380003F00203BB60BB681C4BD3F8E0301B4AD7
:1004480043F01003C2F8E030184BD3F8E03003F063
:1004580010037B607B6800220121154800F082FCB4
:1004680000220221134800F07DFC0123FB600123D8
:100478003B6100237B610023BB6107F10C03194634
:100488000B4800F0BFFA0223FB6001233B61002305
:100498007B610023BB6107F10C031946054800F096
:1004A800B1FA00BF2037BD4680BD00BF00440258E6
:1004B800000402580010025880B400AF72B600BFA2
:1004C800FEE7000080B483B000AF0A4BD3F8F430E5
:1004D800084A43F00203C2F8F430064BD3F8F4306C
:1004E80003F002037B607B6800BF0C37BD465DF8F4
:1004F800047B70470044025880B400AFFEE780B424
:1005080000AFFEE780B400AFFEE780B400AFFEE7BF
:1005180080B400AFFEE780B400AF00BFBD465DF811
:10052800047B704780B400AF00BFBD465DF8047B14
:10053800704780B400AF00BFBD465DF8047B7047CC
:1005480080B500AF00F02AF900BF80BD80B400AFCD
:10055800394BD3F88830384A43F47003C2F88830EE
:10056800364B1B6803F00F03062B07D8334B1B6869
:1005780023F00F03314A43F007031360304B1B6825
:100588002F4A43F0010313602D4B00221A612C4BB4
:100598001A682B492B4B13400B60284B1B6803F040
:1005A8000803002B07D0254B1B6823F00F03234AB1
:1005B80043F007031360224B00229A61204B00226C
:1005C800DA611F4B00221A621D4B1F4A9A621C4BAC
:1005D8001E4ADA621A4B1E4A1A63194B00225A63E2
:1005E800174B1B4A9A63164B0022DA63144B184ABE
:1005F8001A64134B00225A64114B1B68104A23F4E7
:10060800802313600E4B00221A66124B1A68124B95
:100618001340B3F1005F02D2104B01221A60104B55
:1006280043F2D2021A60044B4FF000629A6000BF96
:10063800BD465DF8047B704700ED00E000200052E5
:10064800004402587FEDF6EA000202020000FF01B2
:10065800800201010010005C0000FFFF08810051CA
:1006680000400052DFF834D0FFF770FF0C480D4906
:100678000D4A002302E0D458C4500433C4188C42F5
:10068800F9D30A4A0A4C002301E013600432A2425B
:10069800FBD301F0FBFAFFF71BFE704700000220B6
:1006A80000000020100000201C1D00081000002081
:1006B80030000020FEE7000080B582B000AF0320C4
:1006C80000F06EF901F068F90246154B9B691B0AA8
:1006D80003F00F031349CB5C03F01F0322FA03F363
:1006E8007B600F4B9B6903F00F030E4AD35C03F04A
:1006F8001F037A6822FA03F30B4A13600B4A7B68DC
:100708001360002000F014F80346002B01D00123E9
:1007180002E0FFF7D7FE002318460837BD4680BD24
:1007280000440258041D00080400002000000020B6
:1007380080B582B000AF7860154B1B78002B01D1D3
:10074800012321E0134B1A68114B1B7819464FF40B
:100758007A73B3FBF1F3B2FBF3F3184600F045F9F3
:100768000346002B01D001230EE07B680F2B0AD82B
:10077800002279684FF0FF3000F01DF9064A7B68C7
:100788001360002300E0012318460837BD4680BDEA
:100798000C000020000000200800002080B400AFFA
:1007A800064B1B781A46064B1B681344044A136011
:1007B80000BFBD465DF8047B704700BF0C000020F9
:1007C8002C00002080B400AF034B1B681846BD46C0
:1007D8005DF8047B704700BF2C00002080B584B012
:1007E80000AF7860FFF7EEFFB8607B68FB60FB68DE
:1007F800B3F1FF3F05D00A4B1B781A46FB68134438
:10080800FB6000BFFFF7DEFF0246BB68D31AFA6839
:100818009A42F7D800BF00BF1037BD4680BD00BF61
:100828000C00002080B400AF034B1B681B0C18465B
:10083800BD465DF8047B70470010005C80B485B04D
:1008480000AF78607B6803F00703FB600B4BDB6845
:10085800BB60BA684FF6FF031340BB60FB681A021F
:10086800BB681A43064B1343BB60044ABB68D3609A
:1008780000BF1437BD465DF8047B704700ED00E00B
:100888000000FA0580B400AF044BDB681B0A03F0D4
:1008980007031846BD465DF8047B704700ED00E08D
:1008A80080B483B000AF03463960FB80B7F90630E7
:1008B800002B0ADB3B68DAB20C49B7F906301201A3
:1008C800D2B20B4483F800230AE03B68DAB2084945
:1008D800FB8803F00F03043B1201D2B20B441A76D3
:1008E80000BF0C37BD465DF8047B704700E100E0AF
:1008F80000ED00E080B489B000AFF860B9607A60BC
:10090800FB6803F00703FB61FB69C3F10703042BD2
:1009180028BF0423BB61FB690433062B02D9FB699A
:10092800033B00E000237B614FF0FF32BB6902FA12
:1009380003F3DA43BB681A407B699A404FF0FF31F2
:100948007B6901FA03F3D9437B680B4013431846CC
:100958002437BD465DF8047B7047000080B582B03F
:1009680000AF78607B68013BB3F1807F01D301233E
:100978000FE00A4A7B68013B53600F214FF0FF30BC
:10098800FFF78EFF054B00229A60044B07221A607E
:10099800002318460837BD4680BD00BF10E000E0C0
:1009A80080B582B000AF78607868FFF747FF00BF76
:1009B8000837BD4680BD80B586B000AF0346B96034
:1009C8007A60FB81FFF75EFF78617A68B9687869B9
:1009D800FFF790FF0246B7F90E3011461846FFF7A9
:1009E8005FFF00BF1837BD4680BD80B582B000AF3D
:1009F80078607868FFF7B2FF034618460837BD46A7
:100A080080BD000080B489B000AF786039600023F1
:100A1800FB61894B7B6194E13B681A680121FB69A2
:100A280001FA03F313403B613B69002B00F0868118
:100A38003B685B68012B0BD03B685B68022B07D0D7
:100A48003B685B68112B03D03B685B68122B30D185
:100A58007B689B68BB61FB695B00032202FA03F3B6
:100A6800DB43BA691340BB613B68DA68FB695B002A
:100A780002FA03F3BA691343BB617B68BA699A60E7
:100A88007B685B68BB610122FB6902FA03F3DB4305
:100A9800BA691340BB613B685B681B0903F001023C
:100AA800FB6902FA03F3BA691343BB617B68BA694D
:100AB8005A607B68DB68BB61FB695B00032202FA52
:100AC80003F3DB43BA691340BB613B689A68FB696F
:100AD8005B0002FA03F3BA691343BB617B68BA6926
:100AE800DA603B685B68022B03D03B685B68122BBB
:100AF80023D1FB69DA087B68083253F82230BB61DE
:100B0800FB6903F007039B000F2202FA03F3DB43A0
:100B1800BA691340BB613B681A69FB6903F00703B4
:100B28009B0002FA03F3BA691343BB61FB69DA0855
:100B38007B680832B96943F822107B681B68BB617F
:100B4800FB695B00032202FA03F3DB43BA69134033
:100B5800BB613B685B6803F00302FB695B0002FA58
:100B680003F3BA691343BB617B68BA691A603B68CF
:100B78005B6803F08053002B00F0E0802F4BD3F824
:100B8800F4302E4A43F00203C2F8F4302B4BD3F86A
:100B9800F43003F00203FB60FB68294AFB699B08F9
:100BA800023352F82330BB61FB6903F003039B0057
:100BB8000F2202FA03F3DB43BA691340BB617B6877
:100BC800204A934252D07B681F4A934231D07B68B7
:100BD8001E4A93422BD07B681D4A934225D07B68DE
:100BE8001C4A93421FD07B681B4A934219D07B68EA
:100BF8001A4A934213D07B68194A93420DD07B68F6
:100C0800184A934207D07B68174A934201D10923B7
:100C18002DE00A232BE0082329E0072327E00623F9
:100C280025E0052323E0042321E003231FE002231A
:100C38001DE001231BE000BF80000058004402585B
:100C48000004005800000258000402580008025826
:100C5800000C0258001002580014025800180258DC
:100C6800001C025800200258002402580023FA6988
:100C780002F0030292009340BA691343BB613849FA
:100C8800FB699B080233BA6941F823207B691B681A
:100C9800BB613B69DB43BA691340BB613B685B6876
:100CA80003F48033002B03D0BA693B691343BB615B
:100CB8007B69BA691A607B695B68BB613B69DB4326
:100CC800BA691340BB613B685B6803F40033002BCF
:100CD80003D0BA693B691343BB617B69BA695A603F
:100CE8004FF0B0431B68BB613B69DB43BA691340F3
:100CF800BB613B685B6803F48013002B03D0BA69BF
:100D08003B691343BB614FF0B042BB6913604FF0BE
:100D1800B0435B68BB613B69DB43BA691340BB61A5
:100D28003B685B6803F40013002B03D0BA693B6986
:100D38001343BB614FF0B042BB695360FB69013399
:100D4800FB613B681A68FB6922FA03F3002B7FF406
:100D580063AE00BF00BF2437BD465DF8047B704713
:100D68000004005880B483B000AF78600B467B80E5
:100D780013467B707B78002B03D07A887B689A6156
:100D880003E07B881A047B689A6100BF0C37BD4674
:100D98005DF8047B7047000080B584B000AF7860D0
:100DA800194BDB6803F00403042B0AD0164BDB68ED
:100DB80003F007037A689A4201D001231FE0002359
:100DC8001DE0114BDB6823F007020F497B681343D2
:100DD800CB60FFF7F7FCF86009E0FFF7F3FC024689
:100DE800FB68D31AB3F57A7F01D9012307E0064BD4
:100DF8005B6803F40053B3F5005FEED10023184697
:100E08001037BD4680BD00BF0048025880B58CB081
:100E180000AF78607B68002B01D10123FFE37B687A
:100E28001B6803F00103002B00F08780994B1B69B6
:100E380003F03803FB62974B9B6ABB62FB6A102B7B
:100E480007D0FB6A182B10D1BB6A03F00303022BEF
:100E58000BD1904B1B6803F40033002B6CD07B68DC
:100E68005B68002B68D10123D9E37B685B68B3F525
:100E7800803F06D1874B1B68864A43F48033136052
:100E88002EE07B685B68002B0CD1824B1B68814A83
:100E980023F4803313607F4B1B687E4A23F480233E
:100EA80013601DE07B685B68B3F5A02F0CD1794B0C
:100EB8001B68784A43F480231360764B1B68754A95
:100EC80043F4803313600BE0724B1B68714A23F4C0
:100ED800803313606F4B1B686E4A23F480231360C2
:100EE8007B685B68002B13D0FFF76CFC786208E026
:100EF800FFF768FC02467B6AD31A642B01D90323E7
:100F08008DE3644B1B6803F40033002BF0D014E02E
:100F1800FFF758FC786208E0FFF754FC02467B6A4A
:100F2800D31A642B01D9032379E35A4B1B6803F4C2
:100F38000033002BF0D100E000BF7B681B6803F092
:100F48000203002B00F0AE80524B1B6903F03803FC
:100F58003B62504B9B6AFB613B6A002B07D03B6AA4
:100F6800182B3AD1FB6903F00303002B35D1494B09
:100F78001B6803F00403002B05D07B68DB68002B9B
:100F880001D101234BE3FFF74DFC034641F2030275
:100F9800934217D87B681B69402B08D13D4B5B688F
:100FA80023F47C333B4A43F4003353607AE0394BF3
:100FB8005B6823F47C327B681B691B033549134348
:100FC8004B606FE0334B5B6823F0FE427B681B6924
:100FD8001B06304913434B6064E07B68DB68002BD9
:100FE80045D02C4B1B6823F019027B68DB68294924
:100FF80013430B60FFF7E6FB786208E0FFF7E2FBBC
:1010080002467B6AD31A022B01D9032307E3214B3B
:101018001B6803F00403002BF0D0FFF703FC034622
:1010280041F20302934217D87B681B69402B08D111
:10103800184B5B6823F47C33164A43F4003353603F
:1010480030E0144B5B6823F47C327B681B691B031C
:10105800104913434B6025E00E4B5B6823F0FE42BA
:101068007B681B691B060B4913434B601AE0094B4D
:101078001B68084A23F001031360FFF7A3FB78629B
:101088000AE0FFF79FFB02467B6AD31A022B03D9BB
:101098000323C4E200440258A44B1B6803F0040372
:1010A800002BEED17B681B6803F01003002B00F0C7
:1010B800A9809E4B1B6903F03803BB619B4B9B6A5D
:1010C8007B61BB69082B07D0BB69182B3AD17B69B8
:1010D80003F00303012B35D1944B1B6803F4807391
:1010E800002B05D07B68DB69802B01D0012396E2B9
:1010F800FFF798FB034641F20302934217D87B6837
:101108001B6A202B08D1894B5B6823F0F843874A78
:1011180043F08043536075E0844B5B6823F0F842EA
:101128007B681B6A9B06814913434B606AE07F4BCF
:10113800DB6823F07C527B681B6A1B067B491343E0
:10114800CB605FE07B68DB69002B42D0774B1B6884
:10115800764A43F080031360FFF734FB786208E0B7
:10116800FFF730FB02467B6AD31A022B01D903230F
:1011780055E26E4B1B6803F48073002BF0D0FFF729
:1011880051FB034641F20302934217D87B681B6A5E
:10119800202B08D1654B5B6823F0F843634A43F082
:1011A800804353602EE0614B5B6823F0F8427B6814
:1011B8001B6A9B065D4913434B6023E05B4BDB686E
:1011C80023F07C527B681B6A1B0658491343CB608B
:1011D80018E0564B1B68554A23F080031360FFF74D
:1011E800F1FA786208E0FFF7EDFA02467B6AD31A53
:1011F800022B01D9032312E24C4B1B6803F48073C2
:10120800002BF0D17B681B6803F00803002B36D055
:101218007B685B69002B19D0444B5B6F434A43F0F2
:1012280001035367FFF7CEFA786208E0FFF7CAFABE
:1012380002467B6AD31A022B01D90323EFE13B4B09
:101248005B6F03F00203002BF0D018E0374B5B6FA5
:10125800364A23F001035367FFF7B4FA786208E0CF
:10126800FFF7B0FA02467B6AD31A022B01D903238F
:10127800D5E12E4B5B6F03F00203002BF0D17B68A6
:101288001B6803F02003002B36D07B689B69002B7A
:1012980019D0264B1B68254A43F480531360FFF787
:1012A80091FA786208E0FFF78DFA02467B6AD31A52
:1012B800022B01D90323B2E11C4B1B6803F4005332
:1012C800002BF0D018E0194B1B68184A23F4805300
:1012D8001360FFF777FA786208E0FFF773FA0246BF
:1012E8007B6AD31A022B01D9032398E10F4B1B68A1
:1012F80003F40053002BF0D17B681B6803F0040350
:10130800002B00F085800A4B1B68094A43F4807360
:101318001360FFF757FA78620CE0FFF753FA0246BA
:101328007B6AD31A642B05D9032378E10044025859
:1013380000480258964B1B6803F48073002BECD0CE
:101348007B689B68012B06D1924B1B6F914A43F037
:10135800010313672DE07B689B68002B0CD18D4B34
:101368001B6F8C4A23F0010313678A4B1B6F894A52
:1013780023F0040313671CE07B689B68052B0CD1E2
:10138800844B1B6F834A43F004031367814B1B6F25
:10139800804A43F0010313670BE07E4B1B6F7D4AC5
:1013A80023F0010313677B4B1B6F7A4A23F0040376
:1013B80013677B689B68002B15D0FFF703FA7862E8
:1013C8000AE0FFF7FFF902467B6AD31A41F2883236
:1013D800934201D9032322E16E4B1B6F03F00203F2
:1013E800002BEED014E0FFF7EDF978620AE0FFF782
:1013F800E9F902467B6AD31A41F28832934201D94D
:1014080003230CE1634B1B6F03F00203002BEED1A7
:101418007B685B6A002B00F001815E4B1B6903F05F
:101428003803182B00F0BC807B685B6A022B40F005
:101438009580584B1B68574A23F080731360FFF759
:10144800C1F9786208E0FFF7BDF902467B6AD31A52
:10145800022B01D90323E2E04E4B1B6803F0007313
:10146800002BF0D14B4B9A6A4B4B13407A68916A28
:101478007A68D26A12010A43464913438B627B6831
:101488001B6B013BC3F308027B685B6B013B5B0290
:101498009BB21A437B689B6B013B1B0403F4FE035E
:1014A8001A437B68DB6B013B1B0603F0FE4339499B
:1014B80013430B63374BDB6A364A23F00103D362CD
:1014C800344B5A6B354B13407A68926CD2003149D1
:1014D80013434B632F4BDB6A23F00C027B681B6CB6
:1014E8002C491343CB622B4BDB6A23F002027B6847
:1014F8005B6C28491343CB62264BDB6A254A43F4CD
:101508008033D362234BDB6A224A43F40033D3622D
:10151800204BDB6A1F4A43F48023D3621D4BDB6AEE
:101528001C4A43F00103D3621A4B1B68194A43F063
:1015380080731360FFF746F9786208E0FFF742F915
:1015480002467B6AD31A022B01D9032367E0114BA9
:101558001B6803F00073002BF0D05FE00D4B1B6895
:101568000C4A23F080731360FFF72CF9786208E0C7
:10157800FFF728F902467B6AD31A022B01D9032305
:101588004DE0044B1B6803F00073002BF0D145E0DD
:1015980000480258004402580CFCFFFF0700FFFFF8
:1015A800214B9B6A3B61204B1B6BFB607B685B6A32
:1015B800012B31D03B6903F003027B689B6A9A4296
:1015C8002AD13B691B0903F03F027B68DB6A9A4218
:1015D80022D1FB68C3F308027B681B6B013B9A426C
:1015E8001AD1FB685B0A03F07F027B685B6B013BE7
:1015F8009A4211D1FB681B0C03F07F027B689B6B3E
:10160800013B9A4208D1FB681B0E03F07F027B68FE
:10161800DB6B013B9A4201D0012300E0002318460E
:101628003037BD4680BD00BF0044025880B586B043
:1016380000AF786039607B68002B01D101239CE101
:101648008A4B1B6803F00F033A689A4210D9874BFC
:101658001B6823F00F0285493B6813430B60834BDB
:101668001B6803F00F033A689A4201D0012384E112
:101678007B681B6803F00403002B10D07B681A6991
:101688007B4B9B6903F070039A4208D9784B9B699E
:1016980023F070027B681B69754913438B617B6873
:1016A8001B6803F00803002B10D07B685A69704B45
:1016B800DB6903F070039A4208D96D4BDB6923F0AC
:1016C80070027B685B696A491343CB617B681B685E
:1016D80003F01003002B10D07B689A69644BDB6918
:1016E80003F4E0639A4208D9614BDB6923F4E062B2
:1016F8007B689B695E491343CB617B681B6803F079
:101708002003002B10D07B68DA69594B1B6A03F061
:1017180070039A4208D9564B1B6A23F070027B6803
:10172800DB69534913430B627B681B6803F00203B0
:10173800002B10D07B68DA684D4B9B6903F00F03D0
:101748009A4208D94A4B9B6923F00F027B68DB68F1
:10175800474913438B617B681B6803F00103002B27
:1017680055D0434B9B6923F470627B689B68404962
:1017780013438B617B685B68022B07D13C4B1B686A
:1017880003F40033002B21D10123F6E07B685B686A
:10179800032B07D1364B1B6803F00073002B15D1C0
:1017A8000123EAE07B685B68012B07D1304B1B689B
:1017B80003F48073002B09D10123DEE02C4B1B6856
:1017C80003F00403002B01D10123D6E0284B1B6949
:1017D80023F007027B685B68254913430B61FEF71A
:1017E800F1FF78610AE0FEF7EDFF02467B69D31A44
:1017F80041F28832934201D90323BEE01C4B1B6996
:1018080003F038027B685B68DB009A42EBD17B68A7
:101818001B6803F00203002B10D07B68DA68144BB6
:101828009B6903F00F039A4208D2114B9B6923F07E
:101838000F027B68DB680E4913438B610B4B1B68F7
:1018480003F00F033A689A4214D2084B1B6823F03E
:101858000F0206493B6813430B60044B1B6803F0F7
:101868000F033A689A4205D0012386E0002000520F
:10187800004402587B681B6803F00403002B10D057
:101888007B681A693F4B9B6903F070039A4208D240
:101898003C4B9B6923F070027B681B6939491343F1
:1018A8008B617B681B6803F00803002B10D07B68F2
:1018B8005A69344BDB6903F070039A4208D2314B02
:1018C800DB6923F070027B685B692E491343CB61A7
:1018D8007B681B6803F01003002B10D07B689A69A3
:1018E800284BDB6903F4E0639A4208D2254BDB6995
:1018F80023F4E0627B689B6922491343CB617B68D0
:101908001B6803F02003002B10D07B68DA691D4B9D
:101918001B6A03F070039A4208D21A4B1B6A23F021
:1019280070027B68DB69174913430B6200F034F8D7
:101938000246144B9B691B0A03F00F031249CB5C48
:1019480003F01F0322FA03F33B610E4B9B6903F07C
:101958000F030D4AD35C03F01F033A6922FA03F31D
:101968000A4A13600A4A3B6913600A4B1B68184607
:10197800FEF7DEFE0346FB73FB7B18461837BD46B1
:1019880080BD00BF00440258041D00080400002068
:10199800000000200800002080B489B000AFB34BDD
:1019A8001B6903F03803182B00F2558101A252F885
:1019B80023F000BF211A00085F1C00085F1C000804
:1019C8005F1C00085F1C00085F1C00085F1C000803
:1019D8005F1C0008471A00085F1C00085F1C00080D
:1019E8005F1C00085F1C00085F1C00085F1C0008E3
:1019F8005F1C00084D1A00085F1C00085F1C0008E7
:101A08005F1C00085F1C00085F1C00085F1C0008C2
:101A18005F1C0008531A0008944B1B6803F020034E
:101A2800002B09D0914B1B68DB0803F00303904A95
:101A380022FA03F3BB6111E18D4BBB610EE18D4BC3
:101A4800BB610BE18C4BBB6108E1884B9B6A03F0DF
:101A580003037B61854B9B6A1B0903F03F033B61D2
:101A6800824BDB6A03F00103FB60804B5B6BDB0896
:101A7800C3F30C03FA6802FB03F307EE903AF8EE9F
:101A8800677AC7ED027A3B69002B00F0E1807B6939
:101A9800022B00F083807B69022B00F2A1807B6916
:101AA800002B03D07B69012B56D099E06F4B1B6844
:101AB80003F02003002B2DD06C4B1B68DB0803F0D0
:101AC80003036B4A22FA03F37B607B6807EE903AC4
:101AD800F8EE676A3B6907EE903AF8EE677A86EEA9
:101AE800A77A624B1B6BC3F3080307EE903AF8EE34
:101AF800676A97ED026ADFED615AC6EE257A76EEDF
:101B0800A77AF7EE006A77EEA67A67EE277AC7ED2E
:101B1800077A87E03B6907EE903AF8EE677ADFEDDF
:101B2800586A86EEA77A514B1B6BC3F3080307EE7E
:101B3800903AF8EE676A97ED026ADFED505AC6EE02
:101B4800257A76EEA77AF7EE006A77EEA67A67EE40
:101B5800277AC7ED077A65E03B6907EE903AF8EE19
:101B6800677ADFED486A86EEA77A404B1B6BC3F3B2
:101B7800080307EE903AF8EE676A97ED026ADFED20
:101B88003F5AC6EE257A76EEA77AF7EE006A77EE28
:101B9800A67A67EE277AC7ED077A43E03B6907EE36
:101BA800903AF8EE677ADFED386A86EEA77A2F4B1F
:101BB8001B6BC3F3080307EE903AF8EE676A97EDDC
:101BC800026ADFED2E5AC6EE257A76EEA77AF7EE90
:101BD800006A77EEA67A67EE277AC7ED077A21E0E2
:101BE8003B6907EE903AF8EE677ADFED266A86EEF3
:101BF800A77A1E4B1B6BC3F3080307EE903AF8EE67
:101C0800676A97ED026ADFED1D5AC6EE257A76EE11
:101C1800A77AF7EE006A77EEA67A67EE277AC7ED1D
:101C2800077A00BF114B1B6B5B0A03F07F0301337C
:101C38003B603B6807EE903AB8EE677AD7ED076AE3
:101C4800C6EE877AFCEEE77A17EE903ABB6105E0BC
:101C58000023BB6102E0074BBB6100BFBB691846AC
:101C68002437BD465DF8047B704700BF0044025826
:101C78000090D00300093D0040787D010000004637
:101C88000024744C0024744A20BCBE4B70B50D4D22
:101C98000D4C641BA4100026A64209D10B4D0C4C18
:101CA80000F020F8641BA4100026A64205D170BDE0
:101CB80055F8043B98470136EEE755F8043B98473A
:101CC8000136F2E7141D0008141D0008141D000851
:101CD800181D000802440346934200D1704703F8D8
:101CE800011BF9E7F8B500BFF8BC08BC9E46704771
:0C1CF800F8B500BFF8BC08BC9E46704761
:101D0400000000000102030401020304060708099D
:041D1400BD02000804
:041D18009902000824
:101D1C000090D0030090D0031000000001000000E0
:040000050800066D7C
:00000001FF
